{
  "_format": "hh-sol-artifact-1",
  "contractName": "SeiyajToken",
  "sourceName": "contracts/SeiyajToken.sol",
  "abi": [
    {
      "inputs": [],
      "stateMutability": "nonpayable",
      "type": "constructor"
    },
    {
      "inputs": [
        {
          "internalType": "address",
          "name": "spender",
          "type": "address"
        },
        {
          "internalType": "uint256",
          "name": "allowance",
          "type": "uint256"
        },
        {
          "internalType": "uint256",
          "name": "needed",
          "type": "uint256"
        }
      ],
      "name": "ERC20InsufficientAllowance",
      "type": "error"
    },
    {
      "inputs": [
        {
          "internalType": "address",
          "name": "sender",
          "type": "address"
        },
        {
          "internalType": "uint256",
          "name": "balance",
          "type": "uint256"
        },
        {
          "internalType": "uint256",
          "name": "needed",
          "type": "uint256"
        }
      ],
      "name": "ERC20InsufficientBalance",
      "type": "error"
    },
    {
      "inputs": [
        {
          "internalType": "address",
          "name": "approver",
          "type": "address"
        }
      ],
      "name": "ERC20InvalidApprover",
      "type": "error"
    },
    {
      "inputs": [
        {
          "internalType": "address",
          "name": "receiver",
          "type": "address"
        }
      ],
      "name": "ERC20InvalidReceiver",
      "type": "error"
    },
    {
      "inputs": [
        {
          "internalType": "address",
          "name": "sender",
          "type": "address"
        }
      ],
      "name": "ERC20InvalidSender",
      "type": "error"
    },
    {
      "inputs": [
        {
          "internalType": "address",
          "name": "spender",
          "type": "address"
        }
      ],
      "name": "ERC20InvalidSpender",
      "type": "error"
    },
    {
      "inputs": [
        {
          "internalType": "address",
          "name": "owner",
          "type": "address"
        }
      ],
      "name": "OwnableInvalidOwner",
      "type": "error"
    },
    {
      "inputs": [
        {
          "internalType": "address",
          "name": "account",
          "type": "address"
        }
      ],
      "name": "OwnableUnauthorizedAccount",
      "type": "error"
    },
    {
      "anonymous": false,
      "inputs": [
        {
          "indexed": true,
          "internalType": "address",
          "name": "owner",
          "type": "address"
        },
        {
          "indexed": true,
          "internalType": "address",
          "name": "spender",
          "type": "address"
        },
        {
          "indexed": false,
          "internalType": "uint256",
          "name": "value",
          "type": "uint256"
        }
      ],
      "name": "Approval",
      "type": "event"
    },
    {
      "anonymous": false,
      "inputs": [
        {
          "indexed": true,
          "internalType": "address",
          "name": "previousOwner",
          "type": "address"
        },
        {
          "indexed": true,
          "internalType": "address",
          "name": "newOwner",
          "type": "address"
        }
      ],
      "name": "OwnershipTransferred",
      "type": "event"
    },
    {
      "anonymous": false,
      "inputs": [
        {
          "indexed": true,
          "internalType": "address",
          "name": "from",
          "type": "address"
        },
        {
          "indexed": true,
          "internalType": "address",
          "name": "to",
          "type": "address"
        },
        {
          "indexed": false,
          "internalType": "uint256",
          "name": "value",
          "type": "uint256"
        }
      ],
      "name": "Transfer",
      "type": "event"
    },
    {
      "inputs": [
        {
          "internalType": "address",
          "name": "owner",
          "type": "address"
        },
        {
          "internalType": "address",
          "name": "spender",
          "type": "address"
        }
      ],
      "name": "allowance",
      "outputs": [
        {
          "internalType": "uint256",
          "name": "",
          "type": "uint256"
        }
      ],
      "stateMutability": "view",
      "type": "function"
    },
    {
      "inputs": [
        {
          "internalType": "address",
          "name": "spender",
          "type": "address"
        },
        {
          "internalType": "uint256",
          "name": "value",
          "type": "uint256"
        }
      ],
      "name": "approve",
      "outputs": [
        {
          "internalType": "bool",
          "name": "",
          "type": "bool"
        }
      ],
      "stateMutability": "nonpayable",
      "type": "function"
    },
    {
      "inputs": [
        {
          "internalType": "address",
          "name": "account",
          "type": "address"
        }
      ],
      "name": "balanceOf",
      "outputs": [
        {
          "internalType": "uint256",
          "name": "",
          "type": "uint256"
        }
      ],
      "stateMutability": "view",
      "type": "function"
    },
    {
      "inputs": [
        {
          "internalType": "uint256",
          "name": "value",
          "type": "uint256"
        }
      ],
      "name": "burn",
      "outputs": [],
      "stateMutability": "nonpayable",
      "type": "function"
    },
    {
      "inputs": [],
      "name": "decimals",
      "outputs": [
        {
          "internalType": "uint8",
          "name": "",
          "type": "uint8"
        }
      ],
      "stateMutability": "view",
      "type": "function"
    },
    {
      "inputs": [
        {
          "internalType": "address",
          "name": "account",
          "type": "address"
        },
        {
          "internalType": "uint256",
          "name": "value",
          "type": "uint256"
        }
      ],
      "name": "mint",
      "outputs": [],
      "stateMutability": "nonpayable",
      "type": "function"
    },
    {
      "inputs": [],
      "name": "name",
      "outputs": [
        {
          "internalType": "string",
          "name": "",
          "type": "string"
        }
      ],
      "stateMutability": "view",
      "type": "function"
    },
    {
      "inputs": [],
      "name": "owner",
      "outputs": [
        {
          "internalType": "address",
          "name": "",
          "type": "address"
        }
      ],
      "stateMutability": "view",
      "type": "function"
    },
    {
      "inputs": [],
      "name": "renounceOwnership",
      "outputs": [],
      "stateMutability": "nonpayable",
      "type": "function"
    },
    {
      "inputs": [
        {
          "internalType": "address",
          "name": "to",
          "type": "address"
        },
        {
          "internalType": "uint256",
          "name": "value",
          "type": "uint256"
        }
      ],
      "name": "safeTransfer",
      "outputs": [],
      "stateMutability": "nonpayable",
      "type": "function"
    },
    {
      "inputs": [],
      "name": "symbol",
      "outputs": [
        {
          "internalType": "string",
          "name": "",
          "type": "string"
        }
      ],
      "stateMutability": "view",
      "type": "function"
    },
    {
      "inputs": [],
      "name": "totalSupply",
      "outputs": [
        {
          "internalType": "uint256",
          "name": "",
          "type": "uint256"
        }
      ],
      "stateMutability": "view",
      "type": "function"
    },
    {
      "inputs": [
        {
          "internalType": "address",
          "name": "to",
          "type": "address"
        },
        {
          "internalType": "uint256",
          "name": "value",
          "type": "uint256"
        }
      ],
      "name": "transfer",
      "outputs": [
        {
          "internalType": "bool",
          "name": "",
          "type": "bool"
        }
      ],
      "stateMutability": "nonpayable",
      "type": "function"
    },
    {
      "inputs": [
        {
          "internalType": "address",
          "name": "from",
          "type": "address"
        },
        {
          "internalType": "address",
          "name": "to",
          "type": "address"
        },
        {
          "internalType": "uint256",
          "name": "value",
          "type": "uint256"
        }
      ],
      "name": "transferFrom",
      "outputs": [
        {
          "internalType": "bool",
          "name": "",
          "type": "bool"
        }
      ],
      "stateMutability": "nonpayable",
      "type": "function"
    },
    {
      "inputs": [
        {
          "internalType": "address",
          "name": "newOwner",
          "type": "address"
        }
      ],
      "name": "transferOwnership",
      "outputs": [],
      "stateMutability": "nonpayable",
      "type": "function"
    }
  ],
  "bytecode": "0x60806040523480156200001157600080fd5b50336040518060400160405280600681526020017f53656979616a00000000000000000000000000000000000000000000000000008152506040518060400160405280600381526020017f535954000000000000000000000000000000000000000000000000000000000081525081600390816200009091906200074a565b508060049081620000a291906200074a565b505050600073ffffffffffffffffffffffffffffffffffffffff168173ffffffffffffffffffffffffffffffffffffffff16036200011a5760006040517f1e4fbdf700000000000000000000000000000000000000000000000000000000815260040162000111919062000876565b60405180910390fd5b6200012b816200014d60201b60201c565b50620001473368056bc75e2d631000006200021360201b60201c565b62000968565b6000600560009054906101000a900473ffffffffffffffffffffffffffffffffffffffff16905081600560006101000a81548173ffffffffffffffffffffffffffffffffffffffff021916908373ffffffffffffffffffffffffffffffffffffffff1602179055508173ffffffffffffffffffffffffffffffffffffffff168173ffffffffffffffffffffffffffffffffffffffff167f8be0079c531659141344cd1fd0a4f28419497f9722a3daafe3b4186f6b6457e060405160405180910390a35050565b600073ffffffffffffffffffffffffffffffffffffffff168273ffffffffffffffffffffffffffffffffffffffff1603620002885760006040517fec442f050000000000000000000000000000000000000000000000000000000081526004016200027f919062000876565b60405180910390fd5b6200029c60008383620002a060201b60201c565b5050565b600073ffffffffffffffffffffffffffffffffffffffff168373ffffffffffffffffffffffffffffffffffffffff1603620002f6578060026000828254620002e99190620008c2565b92505081905550620003cc565b60008060008573ffffffffffffffffffffffffffffffffffffffff1673ffffffffffffffffffffffffffffffffffffffff1681526020019081526020016000205490508181101562000385578381836040517fe450d38c0000000000000000000000000000000000000000000000000000000081526004016200037c939291906200090e565b60405180910390fd5b8181036000808673ffffffffffffffffffffffffffffffffffffffff1673ffffffffffffffffffffffffffffffffffffffff16815260200190815260200160002081905550505b600073ffffffffffffffffffffffffffffffffffffffff168273ffffffffffffffffffffffffffffffffffffffff160362000417578060026000828254039250508190555062000464565b806000808473ffffffffffffffffffffffffffffffffffffffff1673ffffffffffffffffffffffffffffffffffffffff168152602001908152602001600020600082825401925050819055505b8173ffffffffffffffffffffffffffffffffffffffff168373ffffffffffffffffffffffffffffffffffffffff167fddf252ad1be2c89b69c2b068fc378daa952ba7f163c4a11628f55a4df523b3ef83604051620004c391906200094b565b60405180910390a3505050565b600081519050919050565b7f4e487b7100000000000000000000000000000000000000000000000000000000600052604160045260246000fd5b7f4e487b7100000000000000000000000000000000000000000000000000000000600052602260045260246000fd5b600060028204905060018216806200055257607f821691505b6020821081036200056857620005676200050a565b5b50919050565b60008190508160005260206000209050919050565b60006020601f8301049050919050565b600082821b905092915050565b600060088302620005d27fffffffffffffffffffffffffffffffffffffffffffffffffffffffffffffffff8262000593565b620005de868362000593565b95508019841693508086168417925050509392505050565b6000819050919050565b6000819050919050565b60006200062b620006256200061f84620005f6565b62000600565b620005f6565b9050919050565b6000819050919050565b62000647836200060a565b6200065f620006568262000632565b848454620005a0565b825550505050565b600090565b6200067662000667565b620006838184846200063c565b505050565b5b81811015620006ab576200069f6000826200066c565b60018101905062000689565b5050565b601f821115620006fa57620006c4816200056e565b620006cf8462000583565b81016020851015620006df578190505b620006f7620006ee8562000583565b83018262000688565b50505b505050565b600082821c905092915050565b60006200071f60001984600802620006ff565b1980831691505092915050565b60006200073a83836200070c565b9150826002028217905092915050565b6200075582620004d0565b67ffffffffffffffff811115620007715762000770620004db565b5b6200077d825462000539565b6200078a828285620006af565b600060209050601f831160018114620007c25760008415620007ad578287015190505b620007b985826200072c565b86555062000829565b601f198416620007d2866200056e565b60005b82811015620007fc57848901518255600182019150602085019450602081019050620007d5565b868310156200081c578489015162000818601f8916826200070c565b8355505b6001600288020188555050505b505050505050565b600073ffffffffffffffffffffffffffffffffffffffff82169050919050565b60006200085e8262000831565b9050919050565b620008708162000851565b82525050565b60006020820190506200088d600083018462000865565b92915050565b7f4e487b7100000000000000000000000000000000000000000000000000000000600052601160045260246000fd5b6000620008cf82620005f6565b9150620008dc83620005f6565b9250828201905080821115620008f757620008f662000893565b5b92915050565b6200090881620005f6565b82525050565b600060608201905062000925600083018662000865565b620009346020830185620008fd565b620009436040830184620008fd565b949350505050565b6000602082019050620009626000830184620008fd565b92915050565b6113c580620009786000396000f3fe608060405234801561001057600080fd5b50600436106100f55760003560e01c806342966c681161009757806395d89b411161006657806395d89b4114610260578063a9059cbb1461027e578063dd62ed3e146102ae578063f2fde38b146102de576100f5565b806342966c68146101ec57806370a0823114610208578063715018a6146102385780638da5cb5b14610242576100f5565b806323b872dd116100d357806323b872dd14610166578063313ce5671461019657806340c10f19146101b4578063423f6cef146101d0576100f5565b806306fdde03146100fa578063095ea7b31461011857806318160ddd14610148575b600080fd5b6101026102fa565b60405161010f9190610f80565b60405180910390f35b610132600480360381019061012d919061103b565b61038c565b60405161013f9190611096565b60405180910390f35b6101506103af565b60405161015d91906110c0565b60405180910390f35b610180600480360381019061017b91906110db565b6103b9565b60405161018d9190611096565b60405180910390f35b61019e6103e8565b6040516101ab919061114a565b60405180910390f35b6101ce60048036038101906101c9919061103b565b6103f1565b005b6101ea60048036038101906101e5919061103b565b610407565b005b61020660048036038101906102019190611165565b610461565b005b610222600480360381019061021d9190611192565b6104b9565b60405161022f91906110c0565b60405180910390f35b610240610501565b005b61024a610515565b60405161025791906111ce565b60405180910390f35b61026861053f565b6040516102759190610f80565b60405180910390f35b6102986004803603810190610293919061103b565b6105d1565b6040516102a59190611096565b60405180910390f35b6102c860048036038101906102c391906111e9565b6105f4565b6040516102d591906110c0565b60405180910390f35b6102f860048036038101906102f39190611192565b61067b565b005b60606003805461030990611258565b80601f016020809104026020016040519081016040528092919081815260200182805461033590611258565b80156103825780601f1061035757610100808354040283529160200191610382565b820191906000526020600020905b81548152906001019060200180831161036557829003601f168201915b5050505050905090565b600080610397610701565b90506103a4818585610709565b600191505092915050565b6000600254905090565b6000806103c4610701565b90506103d185828561071b565b6103dc8585856107af565b60019150509392505050565b60006012905090565b6103f96108a3565b610403828261092a565b5050565b80610411336104b9565b1015610452576040517f08c379a0000000000000000000000000000000000000000000000000000000008152600401610449906112d5565b60405180910390fd5b61045c82826105d1565b505050565b8061046b336104b9565b10156104ac576040517f08c379a00000000000000000000000000000000000000000000000000000000081526004016104a3906112d5565b60405180910390fd5b6104b633826109ac565b50565b60008060008373ffffffffffffffffffffffffffffffffffffffff1673ffffffffffffffffffffffffffffffffffffffff168152602001908152602001600020549050919050565b6105096108a3565b6105136000610a2e565b565b6000600560009054906101000a900473ffffffffffffffffffffffffffffffffffffffff16905090565b60606004805461054e90611258565b80601f016020809104026020016040519081016040528092919081815260200182805461057a90611258565b80156105c75780601f1061059c576101008083540402835291602001916105c7565b820191906000526020600020905b8154815290600101906020018083116105aa57829003601f168201915b5050505050905090565b6000806105dc610701565b90506105e98185856107af565b600191505092915050565b6000600160008473ffffffffffffffffffffffffffffffffffffffff1673ffffffffffffffffffffffffffffffffffffffff16815260200190815260200160002060008373ffffffffffffffffffffffffffffffffffffffff1673ffffffffffffffffffffffffffffffffffffffff16815260200190815260200160002054905092915050565b6106836108a3565b600073ffffffffffffffffffffffffffffffffffffffff168173ffffffffffffffffffffffffffffffffffffffff16036106f55760006040517f1e4fbdf70000000000000000000000000000000000000000000000000000000081526004016106ec91906111ce565b60405180910390fd5b6106fe81610a2e565b50565b600033905090565b6107168383836001610af4565b505050565b600061072784846105f4565b90507fffffffffffffffffffffffffffffffffffffffffffffffffffffffffffffffff81146107a95781811015610799578281836040517ffb8f41b2000000000000000000000000000000000000000000000000000000008152600401610790939291906112f5565b60405180910390fd5b6107a884848484036000610af4565b5b50505050565b600073ffffffffffffffffffffffffffffffffffffffff168373ffffffffffffffffffffffffffffffffffffffff16036108215760006040517f96c6fd1e00000000000000000000000000000000000000000000000000000000815260040161081891906111ce565b60405180910390fd5b600073ffffffffffffffffffffffffffffffffffffffff168273ffffffffffffffffffffffffffffffffffffffff16036108935760006040517fec442f0500000000000000000000000000000000000000000000000000000000815260040161088a91906111ce565b60405180910390fd5b61089e838383610ccb565b505050565b6108ab610701565b73ffffffffffffffffffffffffffffffffffffffff166108c9610515565b73ffffffffffffffffffffffffffffffffffffffff1614610928576108ec610701565b6040517f118cdaa700000000000000000000000000000000000000000000000000000000815260040161091f91906111ce565b60405180910390fd5b565b600073ffffffffffffffffffffffffffffffffffffffff168273ffffffffffffffffffffffffffffffffffffffff160361099c5760006040517fec442f0500000000000000000000000000000000000000000000000000000000815260040161099391906111ce565b60405180910390fd5b6109a860008383610ccb565b5050565b600073ffffffffffffffffffffffffffffffffffffffff168273ffffffffffffffffffffffffffffffffffffffff1603610a1e5760006040517f96c6fd1e000000000000000000000000000000000000000000000000000000008152600401610a1591906111ce565b60405180910390fd5b610a2a82600083610ccb565b5050565b6000600560009054906101000a900473ffffffffffffffffffffffffffffffffffffffff16905081600560006101000a81548173ffffffffffffffffffffffffffffffffffffffff021916908373ffffffffffffffffffffffffffffffffffffffff1602179055508173ffffffffffffffffffffffffffffffffffffffff168173ffffffffffffffffffffffffffffffffffffffff167f8be0079c531659141344cd1fd0a4f28419497f9722a3daafe3b4186f6b6457e060405160405180910390a35050565b600073ffffffffffffffffffffffffffffffffffffffff168473ffffffffffffffffffffffffffffffffffffffff1603610b665760006040517fe602df05000000000000000000000000000000000000000000000000000000008152600401610b5d91906111ce565b60405180910390fd5b600073ffffffffffffffffffffffffffffffffffffffff168373ffffffffffffffffffffffffffffffffffffffff1603610bd85760006040517f94280d62000000000000000000000000000000000000000000000000000000008152600401610bcf91906111ce565b60405180910390fd5b81600160008673ffffffffffffffffffffffffffffffffffffffff1673ffffffffffffffffffffffffffffffffffffffff16815260200190815260200160002060008573ffffffffffffffffffffffffffffffffffffffff1673ffffffffffffffffffffffffffffffffffffffff168152602001908152602001600020819055508015610cc5578273ffffffffffffffffffffffffffffffffffffffff168473ffffffffffffffffffffffffffffffffffffffff167f8c5be1e5ebec7d5bd14f71427d1e84f3dd0314c0f7b2291e5b200ac8c7c3b92584604051610cbc91906110c0565b60405180910390a35b50505050565b600073ffffffffffffffffffffffffffffffffffffffff168373ffffffffffffffffffffffffffffffffffffffff1603610d1d578060026000828254610d11919061135b565b92505081905550610df0565b60008060008573ffffffffffffffffffffffffffffffffffffffff1673ffffffffffffffffffffffffffffffffffffffff16815260200190815260200160002054905081811015610da9578381836040517fe450d38c000000000000000000000000000000000000000000000000000000008152600401610da0939291906112f5565b60405180910390fd5b8181036000808673ffffffffffffffffffffffffffffffffffffffff1673ffffffffffffffffffffffffffffffffffffffff16815260200190815260200160002081905550505b600073ffffffffffffffffffffffffffffffffffffffff168273ffffffffffffffffffffffffffffffffffffffff1603610e395780600260008282540392505081905550610e86565b806000808473ffffffffffffffffffffffffffffffffffffffff1673ffffffffffffffffffffffffffffffffffffffff168152602001908152602001600020600082825401925050819055505b8173ffffffffffffffffffffffffffffffffffffffff168373ffffffffffffffffffffffffffffffffffffffff167fddf252ad1be2c89b69c2b068fc378daa952ba7f163c4a11628f55a4df523b3ef83604051610ee391906110c0565b60405180910390a3505050565b600081519050919050565b600082825260208201905092915050565b60005b83811015610f2a578082015181840152602081019050610f0f565b60008484015250505050565b6000601f19601f8301169050919050565b6000610f5282610ef0565b610f5c8185610efb565b9350610f6c818560208601610f0c565b610f7581610f36565b840191505092915050565b60006020820190508181036000830152610f9a8184610f47565b905092915050565b600080fd5b600073ffffffffffffffffffffffffffffffffffffffff82169050919050565b6000610fd282610fa7565b9050919050565b610fe281610fc7565b8114610fed57600080fd5b50565b600081359050610fff81610fd9565b92915050565b6000819050919050565b61101881611005565b811461102357600080fd5b50565b6000813590506110358161100f565b92915050565b6000806040838503121561105257611051610fa2565b5b600061106085828601610ff0565b925050602061107185828601611026565b9150509250929050565b60008115159050919050565b6110908161107b565b82525050565b60006020820190506110ab6000830184611087565b92915050565b6110ba81611005565b82525050565b60006020820190506110d560008301846110b1565b92915050565b6000806000606084860312156110f4576110f3610fa2565b5b600061110286828701610ff0565b935050602061111386828701610ff0565b925050604061112486828701611026565b9150509250925092565b600060ff82169050919050565b6111448161112e565b82525050565b600060208201905061115f600083018461113b565b92915050565b60006020828403121561117b5761117a610fa2565b5b600061118984828501611026565b91505092915050565b6000602082840312156111a8576111a7610fa2565b5b60006111b684828501610ff0565b91505092915050565b6111c881610fc7565b82525050565b60006020820190506111e360008301846111bf565b92915050565b60008060408385031215611200576111ff610fa2565b5b600061120e85828601610ff0565b925050602061121f85828601610ff0565b9150509250929050565b7f4e487b7100000000000000000000000000000000000000000000000000000000600052602260045260246000fd5b6000600282049050600182168061127057607f821691505b60208210810361128357611282611229565b5b50919050565b7f496e73756666696369656e742062616c616e6365000000000000000000000000600082015250565b60006112bf601483610efb565b91506112ca82611289565b602082019050919050565b600060208201905081810360008301526112ee816112b2565b9050919050565b600060608201905061130a60008301866111bf565b61131760208301856110b1565b61132460408301846110b1565b949350505050565b7f4e487b7100000000000000000000000000000000000000000000000000000000600052601160045260246000fd5b600061136682611005565b915061137183611005565b92508282019050808211156113895761138861132c565b5b9291505056fea2646970667358221220af232a5f744d9043f4ff6b463c980d483f6d14aed6c373b41ef340c09f07416064736f6c63430008180033",
  "linkReferences": {},
  "deployedLinkReferences": {}
}